{
  "_format": "hh-sol-artifact-1",
  "contractName": "DAOTooling",
  "sourceName": "contracts/DAOTooling.sol",
  "abi": [
    {
      "inputs": [
        {
          "internalType": "address",
          "name": "member0",
          "type": "address"
        },
        {
          "internalType": "address",
          "name": "member1",
          "type": "address"
        },
        {
          "internalType": "address",
          "name": "member2",
          "type": "address"
        }
      ],
      "stateMutability": "nonpayable",
      "type": "constructor"
    },
    {
      "anonymous": false,
      "inputs": [
        {
          "indexed": false,
          "internalType": "bool",
          "name": "roundIsActve",
          "type": "bool"
        },
        {
          "indexed": false,
          "internalType": "uint256",
          "name": "timeLeftInRound",
          "type": "uint256"
        },
        {
          "indexed": false,
          "internalType": "bytes",
          "name": "currentVoteType",
          "type": "bytes"
        },
        {
          "indexed": false,
          "internalType": "address",
          "name": "proposedAddress",
          "type": "address"
        },
        {
          "indexed": false,
          "internalType": "uint256",
          "name": "proposedAmount",
          "type": "uint256"
        },
        {
          "indexed": false,
          "internalType": "uint256",
          "name": "thresholdVotes",
          "type": "uint256"
        },
        {
          "indexed": false,
          "internalType": "bytes",
          "name": "msg",
          "type": "bytes"
        }
      ],
      "name": "informVoters",
      "type": "event"
    },
    {
      "inputs": [],
      "name": "addVote",
      "outputs": [],
      "stateMutability": "nonpayable",
      "type": "function"
    },
    {
      "inputs": [],
      "name": "completeVote",
      "outputs": [],
      "stateMutability": "nonpayable",
      "type": "function"
    },
    {
      "inputs": [
        {
          "internalType": "bytes",
          "name": "message",
          "type": "bytes"
        }
      ],
      "name": "getVoteDetails",
      "outputs": [],
      "stateMutability": "nonpayable",
      "type": "function"
    },
    {
      "inputs": [],
      "name": "recieveEther",
      "outputs": [],
      "stateMutability": "payable",
      "type": "function"
    },
    {
      "inputs": [
        {
          "internalType": "address",
          "name": "newAddress",
          "type": "address"
        },
        {
          "internalType": "uint256",
          "name": "newAmount",
          "type": "uint256"
        },
        {
          "internalType": "bytes",
          "name": "voteType",
          "type": "bytes"
        }
      ],
      "name": "suggestVote",
      "outputs": [],
      "stateMutability": "nonpayable",
      "type": "function"
    }
  ],
  "bytecode": "0x608060405260326000556040518060400160405280600a81526020017f416464204d656d626572000000000000000000000000000000000000000000008152506001908051906020019062000056929190620004b6565b506040518060400160405280600d81526020017f52656d6f7665204d656d6265720000000000000000000000000000000000000081525060029080519060200190620000a4929190620004b6565b506040518060400160405280600981526020017f41646420546f6b656e000000000000000000000000000000000000000000000081525060039080519060200190620000f2929190620004b6565b506040518060400160405280600c81526020017f52656d6f766520546f6b656e00000000000000000000000000000000000000008152506004908051906020019062000140929190620004b6565b506040518060400160405280600a81526020017f4368616e67652046656500000000000000000000000000000000000000000000815250600590805190602001906200018e929190620004b6565b506000600b556000600c60006101000a81548160ff0219169083151502179055506040518060400160405280600a81526020017f756e61737369676e656400000000000000000000000000000000000000000000815250600d9080519060200190620001fc929190620004b6565b506000600e60006101000a81548173ffffffffffffffffffffffffffffffffffffffff021916908373ffffffffffffffffffffffffffffffffffffffff1602179055506000600f5560026010553480156200025657600080fd5b5060405162001d7038038062001d7083398181016040528101906200027c91906200057d565b6001600660008573ffffffffffffffffffffffffffffffffffffffff1673ffffffffffffffffffffffffffffffffffffffff16815260200190815260200160002060006101000a81548160ff0219169083151502179055506001600660008473ffffffffffffffffffffffffffffffffffffffff1673ffffffffffffffffffffffffffffffffffffffff16815260200190815260200160002060006101000a81548160ff0219169083151502179055506001600660008373ffffffffffffffffffffffffffffffffffffffff1673ffffffffffffffffffffffffffffffffffffffff16815260200190815260200160002060006101000a81548160ff0219169083151502179055506008839080600181540180825580915050600190039060005260206000200160009091909190916101000a81548173ffffffffffffffffffffffffffffffffffffffff021916908373ffffffffffffffffffffffffffffffffffffffff1602179055506008829080600181540180825580915050600190039060005260206000200160009091909190916101000a81548173ffffffffffffffffffffffffffffffffffffffff021916908373ffffffffffffffffffffffffffffffffffffffff1602179055506008819080600181540180825580915050600190039060005260206000200160009091909190916101000a81548173ffffffffffffffffffffffffffffffffffffffff021916908373ffffffffffffffffffffffffffffffffffffffff16021790555050505062000686565b828054620004c49062000607565b90600052602060002090601f016020900481019282620004e8576000855562000534565b82601f106200050357805160ff191683800117855562000534565b8280016001018555821562000534579182015b828111156200053357825182559160200191906001019062000516565b5b50905062000543919062000547565b5090565b5b808211156200056257600081600090555060010162000548565b5090565b60008151905062000577816200066c565b92915050565b6000806000606084860312156200059357600080fd5b6000620005a38682870162000566565b9350506020620005b68682870162000566565b9250506040620005c98682870162000566565b9150509250925092565b6000620005e082620005e7565b9050919050565b600073ffffffffffffffffffffffffffffffffffffffff82169050919050565b600060028204905060018216806200062057607f821691505b602082108114156200063757620006366200063d565b5b50919050565b7f4e487b7100000000000000000000000000000000000000000000000000000000600052602260045260246000fd5b6200067781620005d3565b81146200068357600080fd5b50565b6116da80620006966000396000f3fe60806040526004361061004a5760003560e01c80638f4062d71461004f5780639b17a9a1146100595780639b60646414610070578063b5e3909e14610099578063db86e36a146100b0575b600080fd5b6100576100d9565b005b34801561006557600080fd5b5061006e6100db565b005b34801561007c57600080fd5b50610097600480360381019061009291906110f5565b610b65565b005b3480156100a557600080fd5b506100ae610d0a565b005b3480156100bc57600080fd5b506100d760048036038101906100d2919061115c565b610eb5565b005b565b600660003373ffffffffffffffffffffffffffffffffffffffff1673ffffffffffffffffffffffffffffffffffffffff16815260200190815260200160002060009054906101000a900460ff1661013157600080fd5b600c60009054906101000a900460ff1661014a57600080fd5b600054600b5461015a9190611387565b43101561016657600080fd5b6000805b6008805490508110156102fb57600a6000600b5481526020019081526020016000206000600883815481106101c8577f4e487b7100000000000000000000000000000000000000000000000000000000600052603260045260246000fd5b9060005260206000200160009054906101000a900473ffffffffffffffffffffffffffffffffffffffff1673ffffffffffffffffffffffffffffffffffffffff1673ffffffffffffffffffffffffffffffffffffffff16815260200190815260200160002060009054906101000a900460ff16156102e857600073ffffffffffffffffffffffffffffffffffffffff1660088281548110610292577f4e487b7100000000000000000000000000000000000000000000000000000000600052603260045260246000fd5b9060005260206000200160009054906101000a900473ffffffffffffffffffffffffffffffffffffffff1673ffffffffffffffffffffffffffffffffffffffff16146102e75781806102e39061152f565b9250505b5b80806102f39061152f565b91505061016a565b506010548110610b0057610423600d8054610315906114cc565b80601f0160208091040260200160405190810160405280929190818152602001828054610341906114cc565b801561038e5780601f106103635761010080835404028352916020019161038e565b820191906000526020600020905b81548152906001019060200180831161037157829003601f168201915b5050505050600180546103a0906114cc565b80601f01602080910402602001604051908101604052809291908181526020018280546103cc906114cc565b80156104195780601f106103ee57610100808354040283529160200191610419565b820191906000526020600020905b8154815290600101906020018083116103fc57829003601f168201915b5050505050610f4b565b156104af57600160066000600e60009054906101000a900473ffffffffffffffffffffffffffffffffffffffff1673ffffffffffffffffffffffffffffffffffffffff1673ffffffffffffffffffffffffffffffffffffffff16815260200190815260200160002060006101000a81548160ff0219169083151502179055506104aa610f66565b610aff565b6105cd600d80546104bf906114cc565b80601f01602080910402602001604051908101604052809291908181526020018280546104eb906114cc565b80156105385780601f1061050d57610100808354040283529160200191610538565b820191906000526020600020905b81548152906001019060200180831161051b57829003601f168201915b50505050506002805461054a906114cc565b80601f0160208091040260200160405190810160405280929190818152602001828054610576906114cc565b80156105c35780601f10610598576101008083540402835291602001916105c3565b820191906000526020600020905b8154815290600101906020018083116105a657829003601f168201915b5050505050610f4b565b156107bc57600060066000600e60009054906101000a900473ffffffffffffffffffffffffffffffffffffffff1673ffffffffffffffffffffffffffffffffffffffff1673ffffffffffffffffffffffffffffffffffffffff16815260200190815260200160002060006101000a81548160ff02191690831515021790555060005b6008805490508110156107b657600e60009054906101000a900473ffffffffffffffffffffffffffffffffffffffff1673ffffffffffffffffffffffffffffffffffffffff16600882815481106106cf577f4e487b7100000000000000000000000000000000000000000000000000000000600052603260045260246000fd5b9060005260206000200160009054906101000a900473ffffffffffffffffffffffffffffffffffffffff1673ffffffffffffffffffffffffffffffffffffffff1614156107a357600060088281548110610752577f4e487b7100000000000000000000000000000000000000000000000000000000600052603260045260246000fd5b9060005260206000200160006101000a81548173ffffffffffffffffffffffffffffffffffffffff021916908373ffffffffffffffffffffffffffffffffffffffff1602179055506107a2610f66565b5b80806107ae9061152f565b91505061064f565b50610afe565b6108da600d80546107cc906114cc565b80601f01602080910402602001604051908101604052809291908181526020018280546107f8906114cc565b80156108455780601f1061081a57610100808354040283529160200191610845565b820191906000526020600020905b81548152906001019060200180831161082857829003601f168201915b505050505060038054610857906114cc565b80601f0160208091040260200160405190810160405280929190818152602001828054610883906114cc565b80156108d05780601f106108a5576101008083540402835291602001916108d0565b820191906000526020600020905b8154815290600101906020018083116108b357829003601f168201915b5050505050610f4b565b1561095e57600160076000600e60009054906101000a900473ffffffffffffffffffffffffffffffffffffffff1673ffffffffffffffffffffffffffffffffffffffff1673ffffffffffffffffffffffffffffffffffffffff16815260200190815260200160002060006101000a81548160ff021916908315150217905550610afd565b610a7c600d805461096e906114cc565b80601f016020809104026020016040519081016040528092919081815260200182805461099a906114cc565b80156109e75780601f106109bc576101008083540402835291602001916109e7565b820191906000526020600020905b8154815290600101906020018083116109ca57829003601f168201915b5050505050600480546109f9906114cc565b80601f0160208091040260200160405190810160405280929190818152602001828054610a25906114cc565b8015610a725780601f10610a4757610100808354040283529160200191610a72565b820191906000526020600020905b815481529060010190602001808311610a5557829003601f168201915b5050505050610f4b565b15610afc57600060076000600e60009054906101000a900473ffffffffffffffffffffffffffffffffffffffff1673ffffffffffffffffffffffffffffffffffffffff1673ffffffffffffffffffffffffffffffffffffffff16815260200190815260200160002060006101000a81548160ff0219169083151502179055505b5b5b5b5b600f546009819055506000600c60006101000a81548160ff021916908315150217905550610b626040518060400160405280600b81526020017f566f74696e6720656e6421000000000000000000000000000000000000000000815250610eb5565b50565b600660003373ffffffffffffffffffffffffffffffffffffffff1673ffffffffffffffffffffffffffffffffffffffff16815260200190815260200160002060009054906101000a900460ff16610bbb57600080fd5b60001515600c60009054906101000a900460ff16151514610bdb57600080fd5b6001600c60006101000a81548160ff02191690831515021790555043600b8190555080600d9080519060200190610c13929190610fc0565b506001600a6000600b54815260200190815260200160002060003373ffffffffffffffffffffffffffffffffffffffff1673ffffffffffffffffffffffffffffffffffffffff16815260200190815260200160002060006101000a81548160ff02191690831515021790555082600e60006101000a81548173ffffffffffffffffffffffffffffffffffffffff021916908373ffffffffffffffffffffffffffffffffffffffff16021790555081600f81905550610d056040518060400160405280600d81526020017f47656e6573697320566f74652100000000000000000000000000000000000000815250610eb5565b505050565b600660003373ffffffffffffffffffffffffffffffffffffffff1673ffffffffffffffffffffffffffffffffffffffff16815260200190815260200160002060009054906101000a900460ff16610d6057600080fd5b600c60009054906101000a900460ff16610d7957600080fd5b6000600b5443610d89919061140e565b600054610d96919061140e565b11610da057600080fd5b600a6000600b54815260200190815260200160002060003373ffffffffffffffffffffffffffffffffffffffff1673ffffffffffffffffffffffffffffffffffffffff16815260200190815260200160002060009054906101000a900460ff1615610e0a57600080fd5b6001600a6000600b54815260200190815260200160002060003373ffffffffffffffffffffffffffffffffffffffff1673ffffffffffffffffffffffffffffffffffffffff16815260200190815260200160002060006101000a81548160ff021916908315150217905550610eb36040518060400160405280600981526020017f4e657720566f7465210000000000000000000000000000000000000000000000815250610eb5565b565b7f9ed2bdc665a71aa545849e18b36fa7c7fcd2c83a11a2045dd8f0619d491adee9600c60009054906101000a900460ff16600b5443610ef4919061140e565b600054610f01919061140e565b600d600e60009054906101000a900473ffffffffffffffffffffffffffffffffffffffff16600f5460105487604051610f409796959493929190611283565b60405180910390a150565b60008180519060200120838051906020012014905092915050565b600060088054905090506000600282610f7f9190611578565b1415610f9d57600281610f9291906113dd565b601081905550610fbd565b6001600282610fac91906113dd565b610fb69190611387565b6010819055505b50565b828054610fcc906114cc565b90600052602060002090601f016020900481019282610fee5760008555611035565b82601f1061100757805160ff1916838001178555611035565b82800160010185558215611035579182015b82811115611034578251825591602001919060010190611019565b5b5090506110429190611046565b5090565b5b8082111561105f576000816000905550600101611047565b5090565b600061107661107184611325565b611300565b90508281526020810184848401111561108e57600080fd5b61109984828561148a565b509392505050565b6000813590506110b081611676565b92915050565b600082601f8301126110c757600080fd5b81356110d7848260208601611063565b91505092915050565b6000813590506110ef8161168d565b92915050565b60008060006060848603121561110a57600080fd5b6000611118868287016110a1565b9350506020611129868287016110e0565b925050604084013567ffffffffffffffff81111561114657600080fd5b611152868287016110b6565b9150509250925092565b60006020828403121561116e57600080fd5b600082013567ffffffffffffffff81111561118857600080fd5b611194848285016110b6565b91505092915050565b6111a681611442565b82525050565b6111b581611454565b82525050565b60006111c68261136b565b6111d08185611376565b93506111e0818560208601611499565b6111e981611665565b840191505092915050565b60008154611201816114cc565b61120b8186611376565b9450600182166000811461122657600181146112385761126b565b60ff198316865260208601935061126b565b61124185611356565b60005b8381101561126357815481890152600182019150602081019050611244565b808801955050505b50505092915050565b61127d81611480565b82525050565b600060e082019050611298600083018a6111ac565b6112a56020830189611274565b81810360408301526112b781886111f4565b90506112c6606083018761119d565b6112d36080830186611274565b6112e060a0830185611274565b81810360c08301526112f281846111bb565b905098975050505050505050565b600061130a61131b565b905061131682826114fe565b919050565b6000604051905090565b600067ffffffffffffffff8211156113405761133f611636565b5b61134982611665565b9050602081019050919050565b60008190508160005260206000209050919050565b600081519050919050565b600082825260208201905092915050565b600061139282611480565b915061139d83611480565b9250827fffffffffffffffffffffffffffffffffffffffffffffffffffffffffffffffff038211156113d2576113d16115a9565b5b828201905092915050565b60006113e882611480565b91506113f383611480565b925082611403576114026115d8565b5b828204905092915050565b600061141982611480565b915061142483611480565b925082821015611437576114366115a9565b5b828203905092915050565b600061144d82611460565b9050919050565b60008115159050919050565b600073ffffffffffffffffffffffffffffffffffffffff82169050919050565b6000819050919050565b82818337600083830152505050565b60005b838110156114b757808201518184015260208101905061149c565b838111156114c6576000848401525b50505050565b600060028204905060018216806114e457607f821691505b602082108114156114f8576114f7611607565b5b50919050565b61150782611665565b810181811067ffffffffffffffff8211171561152657611525611636565b5b80604052505050565b600061153a82611480565b91507fffffffffffffffffffffffffffffffffffffffffffffffffffffffffffffffff82141561156d5761156c6115a9565b5b600182019050919050565b600061158382611480565b915061158e83611480565b92508261159e5761159d6115d8565b5b828206905092915050565b7f4e487b7100000000000000000000000000000000000000000000000000000000600052601160045260246000fd5b7f4e487b7100000000000000000000000000000000000000000000000000000000600052601260045260246000fd5b7f4e487b7100000000000000000000000000000000000000000000000000000000600052602260045260246000fd5b7f4e487b7100000000000000000000000000000000000000000000000000000000600052604160045260246000fd5b6000601f19601f8301169050919050565b61167f81611442565b811461168a57600080fd5b50565b61169681611480565b81146116a157600080fd5b5056fea26469706673582212206edf82176aa195a94b68d514ad00a4dc528d44e7047d42ac93f742dd487328aa64736f6c63430008010033",
  "linkReferences": {},
  "deployedLinkReferences": {}
}