{
  "_format": "hh-sol-artifact-1",
  "contractName": "DAOTooling",
  "sourceName": "contracts/DAOTooling.sol",
  "abi": [
    {
      "inputs": [
        {
          "internalType": "address",
          "name": "member0",
          "type": "address"
        },
        {
          "internalType": "address",
          "name": "member1",
          "type": "address"
        },
        {
          "internalType": "address",
          "name": "member2",
          "type": "address"
        }
      ],
      "stateMutability": "nonpayable",
      "type": "constructor"
    },
    {
      "anonymous": false,
      "inputs": [
        {
          "indexed": false,
          "internalType": "bool",
          "name": "roundIsActve",
          "type": "bool"
        },
        {
          "indexed": false,
          "internalType": "uint256",
          "name": "timeLeftInRound",
          "type": "uint256"
        },
        {
          "indexed": false,
          "internalType": "bytes",
          "name": "currentVoteType",
          "type": "bytes"
        },
        {
          "indexed": false,
          "internalType": "address",
          "name": "proposedAddress",
          "type": "address"
        },
        {
          "indexed": false,
          "internalType": "uint256",
          "name": "proposedAmount",
          "type": "uint256"
        },
        {
          "indexed": false,
          "internalType": "uint256",
          "name": "thresholdVotes",
          "type": "uint256"
        },
        {
          "indexed": false,
          "internalType": "bytes",
          "name": "msg",
          "type": "bytes"
        }
      ],
      "name": "informVoters",
      "type": "event"
    },
    {
      "inputs": [],
      "name": "addVote",
      "outputs": [],
      "stateMutability": "nonpayable",
      "type": "function"
    },
    {
      "inputs": [],
      "name": "completeVote",
      "outputs": [],
      "stateMutability": "nonpayable",
      "type": "function"
    },
    {
      "inputs": [
        {
          "internalType": "bytes",
          "name": "message",
          "type": "bytes"
        }
      ],
      "name": "getVoteDetails",
      "outputs": [],
      "stateMutability": "nonpayable",
      "type": "function"
    },
    {
      "inputs": [],
      "name": "recieveEther",
      "outputs": [],
      "stateMutability": "payable",
      "type": "function"
    },
    {
      "inputs": [
        {
          "internalType": "address",
          "name": "newAddress",
          "type": "address"
        },
        {
          "internalType": "uint256",
          "name": "newAmount",
          "type": "uint256"
        },
        {
          "internalType": "bytes",
          "name": "voteType",
          "type": "bytes"
        }
      ],
      "name": "suggestVote",
      "outputs": [],
      "stateMutability": "nonpayable",
      "type": "function"
    }
  ],
  "bytecode": "0x6080604052600f6000556040518060400160405280600a81526020017f416464204d656d626572000000000000000000000000000000000000000000008152506001908051906020019062000056929190620004b6565b506040518060400160405280600d81526020017f52656d6f7665204d656d6265720000000000000000000000000000000000000081525060029080519060200190620000a4929190620004b6565b506040518060400160405280600981526020017f41646420546f6b656e000000000000000000000000000000000000000000000081525060039080519060200190620000f2929190620004b6565b506040518060400160405280600c81526020017f52656d6f766520546f6b656e00000000000000000000000000000000000000008152506004908051906020019062000140929190620004b6565b506040518060400160405280600a81526020017f4368616e67652046656500000000000000000000000000000000000000000000815250600590805190602001906200018e929190620004b6565b506000600b556000600c60006101000a81548160ff0219169083151502179055506040518060400160405280600a81526020017f756e61737369676e656400000000000000000000000000000000000000000000815250600d9080519060200190620001fc929190620004b6565b506000600e60006101000a81548173ffffffffffffffffffffffffffffffffffffffff021916908373ffffffffffffffffffffffffffffffffffffffff1602179055506000600f5560026010553480156200025657600080fd5b5060405162001d9638038062001d9683398181016040528101906200027c91906200057d565b6001600660008573ffffffffffffffffffffffffffffffffffffffff1673ffffffffffffffffffffffffffffffffffffffff16815260200190815260200160002060006101000a81548160ff0219169083151502179055506001600660008473ffffffffffffffffffffffffffffffffffffffff1673ffffffffffffffffffffffffffffffffffffffff16815260200190815260200160002060006101000a81548160ff0219169083151502179055506001600660008373ffffffffffffffffffffffffffffffffffffffff1673ffffffffffffffffffffffffffffffffffffffff16815260200190815260200160002060006101000a81548160ff0219169083151502179055506008839080600181540180825580915050600190039060005260206000200160009091909190916101000a81548173ffffffffffffffffffffffffffffffffffffffff021916908373ffffffffffffffffffffffffffffffffffffffff1602179055506008829080600181540180825580915050600190039060005260206000200160009091909190916101000a81548173ffffffffffffffffffffffffffffffffffffffff021916908373ffffffffffffffffffffffffffffffffffffffff1602179055506008819080600181540180825580915050600190039060005260206000200160009091909190916101000a81548173ffffffffffffffffffffffffffffffffffffffff021916908373ffffffffffffffffffffffffffffffffffffffff16021790555050505062000686565b828054620004c49062000607565b90600052602060002090601f016020900481019282620004e8576000855562000534565b82601f106200050357805160ff191683800117855562000534565b8280016001018555821562000534579182015b828111156200053357825182559160200191906001019062000516565b5b50905062000543919062000547565b5090565b5b808211156200056257600081600090555060010162000548565b5090565b60008151905062000577816200066c565b92915050565b6000806000606084860312156200059357600080fd5b6000620005a38682870162000566565b9350506020620005b68682870162000566565b9250506040620005c98682870162000566565b9150509250925092565b6000620005e082620005e7565b9050919050565b600073ffffffffffffffffffffffffffffffffffffffff82169050919050565b600060028204905060018216806200062057607f821691505b602082108114156200063757620006366200063d565b5b50919050565b7f4e487b7100000000000000000000000000000000000000000000000000000000600052602260045260246000fd5b6200067781620005d3565b81146200068357600080fd5b50565b61170080620006966000396000f3fe60806040526004361061004a5760003560e01c80638f4062d71461004f5780639b17a9a1146100595780639b60646414610070578063b5e3909e14610099578063db86e36a146100b0575b600080fd5b6100576100d9565b005b34801561006557600080fd5b5061006e6100db565b005b34801561007c57600080fd5b506100976004803603810190610092919061111b565b610b65565b005b3480156100a557600080fd5b506100ae610d0a565b005b3480156100bc57600080fd5b506100d760048036038101906100d29190611182565b610eb5565b005b565b600660003373ffffffffffffffffffffffffffffffffffffffff1673ffffffffffffffffffffffffffffffffffffffff16815260200190815260200160002060009054906101000a900460ff1661013157600080fd5b600c60009054906101000a900460ff1661014a57600080fd5b600054600b5461015a91906113ad565b43101561016657600080fd5b6000805b6008805490508110156102fb57600a6000600b5481526020019081526020016000206000600883815481106101c8577f4e487b7100000000000000000000000000000000000000000000000000000000600052603260045260246000fd5b9060005260206000200160009054906101000a900473ffffffffffffffffffffffffffffffffffffffff1673ffffffffffffffffffffffffffffffffffffffff1673ffffffffffffffffffffffffffffffffffffffff16815260200190815260200160002060009054906101000a900460ff16156102e857600073ffffffffffffffffffffffffffffffffffffffff1660088281548110610292577f4e487b7100000000000000000000000000000000000000000000000000000000600052603260045260246000fd5b9060005260206000200160009054906101000a900473ffffffffffffffffffffffffffffffffffffffff1673ffffffffffffffffffffffffffffffffffffffff16146102e75781806102e390611555565b9250505b5b80806102f390611555565b91505061016a565b506010548110610b0057610423600d8054610315906114f2565b80601f0160208091040260200160405190810160405280929190818152602001828054610341906114f2565b801561038e5780601f106103635761010080835404028352916020019161038e565b820191906000526020600020905b81548152906001019060200180831161037157829003601f168201915b5050505050600180546103a0906114f2565b80601f01602080910402602001604051908101604052809291908181526020018280546103cc906114f2565b80156104195780601f106103ee57610100808354040283529160200191610419565b820191906000526020600020905b8154815290600101906020018083116103fc57829003601f168201915b5050505050610f71565b156104af57600160066000600e60009054906101000a900473ffffffffffffffffffffffffffffffffffffffff1673ffffffffffffffffffffffffffffffffffffffff1673ffffffffffffffffffffffffffffffffffffffff16815260200190815260200160002060006101000a81548160ff0219169083151502179055506104aa610f8c565b610aff565b6105cd600d80546104bf906114f2565b80601f01602080910402602001604051908101604052809291908181526020018280546104eb906114f2565b80156105385780601f1061050d57610100808354040283529160200191610538565b820191906000526020600020905b81548152906001019060200180831161051b57829003601f168201915b50505050506002805461054a906114f2565b80601f0160208091040260200160405190810160405280929190818152602001828054610576906114f2565b80156105c35780601f10610598576101008083540402835291602001916105c3565b820191906000526020600020905b8154815290600101906020018083116105a657829003601f168201915b5050505050610f71565b156107bc57600060066000600e60009054906101000a900473ffffffffffffffffffffffffffffffffffffffff1673ffffffffffffffffffffffffffffffffffffffff1673ffffffffffffffffffffffffffffffffffffffff16815260200190815260200160002060006101000a81548160ff02191690831515021790555060005b6008805490508110156107b657600e60009054906101000a900473ffffffffffffffffffffffffffffffffffffffff1673ffffffffffffffffffffffffffffffffffffffff16600882815481106106cf577f4e487b7100000000000000000000000000000000000000000000000000000000600052603260045260246000fd5b9060005260206000200160009054906101000a900473ffffffffffffffffffffffffffffffffffffffff1673ffffffffffffffffffffffffffffffffffffffff1614156107a357600060088281548110610752577f4e487b7100000000000000000000000000000000000000000000000000000000600052603260045260246000fd5b9060005260206000200160006101000a81548173ffffffffffffffffffffffffffffffffffffffff021916908373ffffffffffffffffffffffffffffffffffffffff1602179055506107a2610f8c565b5b80806107ae90611555565b91505061064f565b50610afe565b6108da600d80546107cc906114f2565b80601f01602080910402602001604051908101604052809291908181526020018280546107f8906114f2565b80156108455780601f1061081a57610100808354040283529160200191610845565b820191906000526020600020905b81548152906001019060200180831161082857829003601f168201915b505050505060038054610857906114f2565b80601f0160208091040260200160405190810160405280929190818152602001828054610883906114f2565b80156108d05780601f106108a5576101008083540402835291602001916108d0565b820191906000526020600020905b8154815290600101906020018083116108b357829003601f168201915b5050505050610f71565b1561095e57600160076000600e60009054906101000a900473ffffffffffffffffffffffffffffffffffffffff1673ffffffffffffffffffffffffffffffffffffffff1673ffffffffffffffffffffffffffffffffffffffff16815260200190815260200160002060006101000a81548160ff021916908315150217905550610afd565b610a7c600d805461096e906114f2565b80601f016020809104026020016040519081016040528092919081815260200182805461099a906114f2565b80156109e75780601f106109bc576101008083540402835291602001916109e7565b820191906000526020600020905b8154815290600101906020018083116109ca57829003601f168201915b5050505050600480546109f9906114f2565b80601f0160208091040260200160405190810160405280929190818152602001828054610a25906114f2565b8015610a725780601f10610a4757610100808354040283529160200191610a72565b820191906000526020600020905b815481529060010190602001808311610a5557829003601f168201915b5050505050610f71565b15610afc57600060076000600e60009054906101000a900473ffffffffffffffffffffffffffffffffffffffff1673ffffffffffffffffffffffffffffffffffffffff1673ffffffffffffffffffffffffffffffffffffffff16815260200190815260200160002060006101000a81548160ff0219169083151502179055505b5b5b5b5b600f546009819055506000600c60006101000a81548160ff021916908315150217905550610b626040518060400160405280600b81526020017f566f74696e6720656e6421000000000000000000000000000000000000000000815250610eb5565b50565b600660003373ffffffffffffffffffffffffffffffffffffffff1673ffffffffffffffffffffffffffffffffffffffff16815260200190815260200160002060009054906101000a900460ff16610bbb57600080fd5b60001515600c60009054906101000a900460ff16151514610bdb57600080fd5b6001600c60006101000a81548160ff02191690831515021790555043600b8190555080600d9080519060200190610c13929190610fe6565b506001600a6000600b54815260200190815260200160002060003373ffffffffffffffffffffffffffffffffffffffff1673ffffffffffffffffffffffffffffffffffffffff16815260200190815260200160002060006101000a81548160ff02191690831515021790555082600e60006101000a81548173ffffffffffffffffffffffffffffffffffffffff021916908373ffffffffffffffffffffffffffffffffffffffff16021790555081600f81905550610d056040518060400160405280600d81526020017f47656e6573697320566f74652100000000000000000000000000000000000000815250610eb5565b505050565b600660003373ffffffffffffffffffffffffffffffffffffffff1673ffffffffffffffffffffffffffffffffffffffff16815260200190815260200160002060009054906101000a900460ff16610d6057600080fd5b600c60009054906101000a900460ff16610d7957600080fd5b6000600b5443610d899190611434565b600054610d969190611434565b11610da057600080fd5b600a6000600b54815260200190815260200160002060003373ffffffffffffffffffffffffffffffffffffffff1673ffffffffffffffffffffffffffffffffffffffff16815260200190815260200160002060009054906101000a900460ff1615610e0a57600080fd5b6001600a6000600b54815260200190815260200160002060003373ffffffffffffffffffffffffffffffffffffffff1673ffffffffffffffffffffffffffffffffffffffff16815260200190815260200160002060006101000a81548160ff021916908315150217905550610eb36040518060400160405280600981526020017f4e657720566f7465210000000000000000000000000000000000000000000000815250610eb5565b565b600043600b54600054610ec891906113ad565b10610eef57600b5443610edb9190611434565b600054610ee89190611434565b9050610ef4565b600090505b7f9ed2bdc665a71aa545849e18b36fa7c7fcd2c83a11a2045dd8f0619d491adee9600c60009054906101000a900460ff1682600d600e60009054906101000a900473ffffffffffffffffffffffffffffffffffffffff16600f5460105488604051610f6597969594939291906112a9565b60405180910390a15050565b60008180519060200120838051906020012014905092915050565b600060088054905090506000600282610fa5919061159e565b1415610fc357600281610fb89190611403565b601081905550610fe3565b6001600282610fd29190611403565b610fdc91906113ad565b6010819055505b50565b828054610ff2906114f2565b90600052602060002090601f016020900481019282611014576000855561105b565b82601f1061102d57805160ff191683800117855561105b565b8280016001018555821561105b579182015b8281111561105a57825182559160200191906001019061103f565b5b509050611068919061106c565b5090565b5b8082111561108557600081600090555060010161106d565b5090565b600061109c6110978461134b565b611326565b9050828152602081018484840111156110b457600080fd5b6110bf8482856114b0565b509392505050565b6000813590506110d68161169c565b92915050565b600082601f8301126110ed57600080fd5b81356110fd848260208601611089565b91505092915050565b600081359050611115816116b3565b92915050565b60008060006060848603121561113057600080fd5b600061113e868287016110c7565b935050602061114f86828701611106565b925050604084013567ffffffffffffffff81111561116c57600080fd5b611178868287016110dc565b9150509250925092565b60006020828403121561119457600080fd5b600082013567ffffffffffffffff8111156111ae57600080fd5b6111ba848285016110dc565b91505092915050565b6111cc81611468565b82525050565b6111db8161147a565b82525050565b60006111ec82611391565b6111f6818561139c565b93506112068185602086016114bf565b61120f8161168b565b840191505092915050565b60008154611227816114f2565b611231818661139c565b9450600182166000811461124c576001811461125e57611291565b60ff1983168652602086019350611291565b6112678561137c565b60005b838110156112895781548189015260018201915060208101905061126a565b808801955050505b50505092915050565b6112a3816114a6565b82525050565b600060e0820190506112be600083018a6111d2565b6112cb602083018961129a565b81810360408301526112dd818861121a565b90506112ec60608301876111c3565b6112f9608083018661129a565b61130660a083018561129a565b81810360c083015261131881846111e1565b905098975050505050505050565b6000611330611341565b905061133c8282611524565b919050565b6000604051905090565b600067ffffffffffffffff8211156113665761136561165c565b5b61136f8261168b565b9050602081019050919050565b60008190508160005260206000209050919050565b600081519050919050565b600082825260208201905092915050565b60006113b8826114a6565b91506113c3836114a6565b9250827fffffffffffffffffffffffffffffffffffffffffffffffffffffffffffffffff038211156113f8576113f76115cf565b5b828201905092915050565b600061140e826114a6565b9150611419836114a6565b925082611429576114286115fe565b5b828204905092915050565b600061143f826114a6565b915061144a836114a6565b92508282101561145d5761145c6115cf565b5b828203905092915050565b600061147382611486565b9050919050565b60008115159050919050565b600073ffffffffffffffffffffffffffffffffffffffff82169050919050565b6000819050919050565b82818337600083830152505050565b60005b838110156114dd5780820151818401526020810190506114c2565b838111156114ec576000848401525b50505050565b6000600282049050600182168061150a57607f821691505b6020821081141561151e5761151d61162d565b5b50919050565b61152d8261168b565b810181811067ffffffffffffffff8211171561154c5761154b61165c565b5b80604052505050565b6000611560826114a6565b91507fffffffffffffffffffffffffffffffffffffffffffffffffffffffffffffffff821415611593576115926115cf565b5b600182019050919050565b60006115a9826114a6565b91506115b4836114a6565b9250826115c4576115c36115fe565b5b828206905092915050565b7f4e487b7100000000000000000000000000000000000000000000000000000000600052601160045260246000fd5b7f4e487b7100000000000000000000000000000000000000000000000000000000600052601260045260246000fd5b7f4e487b7100000000000000000000000000000000000000000000000000000000600052602260045260246000fd5b7f4e487b7100000000000000000000000000000000000000000000000000000000600052604160045260246000fd5b6000601f19601f8301169050919050565b6116a581611468565b81146116b057600080fd5b50565b6116bc816114a6565b81146116c757600080fd5b5056fea2646970667358221220eda614bc3b43765676b8aa74e49a1a6dd4325f4227358747f92caab5efd6e07164736f6c63430008010033",
  "linkReferences": {},
  "deployedLinkReferences": {}
}