{
  "_format": "hh-sol-artifact-1",
  "contractName": "DAOTooling",
  "sourceName": "contracts/DAOTooling.sol",
  "abi": [
    {
      "inputs": [
        {
          "internalType": "address",
          "name": "member0",
          "type": "address"
        },
        {
          "internalType": "address",
          "name": "member1",
          "type": "address"
        },
        {
          "internalType": "address",
          "name": "member2",
          "type": "address"
        }
      ],
      "stateMutability": "nonpayable",
      "type": "constructor"
    },
    {
      "anonymous": false,
      "inputs": [
        {
          "indexed": false,
          "internalType": "bool",
          "name": "roundIsActve",
          "type": "bool"
        },
        {
          "indexed": false,
          "internalType": "uint256",
          "name": "timeLeftInRound",
          "type": "uint256"
        },
        {
          "indexed": false,
          "internalType": "bytes",
          "name": "currentVoteType",
          "type": "bytes"
        },
        {
          "indexed": false,
          "internalType": "address",
          "name": "proposedAddress",
          "type": "address"
        },
        {
          "indexed": false,
          "internalType": "uint256",
          "name": "proposedAmount",
          "type": "uint256"
        },
        {
          "indexed": false,
          "internalType": "uint256",
          "name": "thresholdVotes",
          "type": "uint256"
        },
        {
          "indexed": false,
          "internalType": "bytes",
          "name": "msg",
          "type": "bytes"
        }
      ],
      "name": "informVoters",
      "type": "event"
    },
    {
      "inputs": [],
      "name": "addVote",
      "outputs": [],
      "stateMutability": "nonpayable",
      "type": "function"
    },
    {
      "inputs": [],
      "name": "completeVote",
      "outputs": [],
      "stateMutability": "nonpayable",
      "type": "function"
    },
    {
      "inputs": [],
      "name": "getDAO",
      "outputs": [
        {
          "internalType": "address[]",
          "name": "",
          "type": "address[]"
        }
      ],
      "stateMutability": "view",
      "type": "function"
    },
    {
      "inputs": [],
      "name": "getFee",
      "outputs": [
        {
          "internalType": "uint256",
          "name": "",
          "type": "uint256"
        }
      ],
      "stateMutability": "view",
      "type": "function"
    },
    {
      "inputs": [
        {
          "internalType": "address",
          "name": "token",
          "type": "address"
        }
      ],
      "name": "getToken",
      "outputs": [
        {
          "internalType": "bool",
          "name": "",
          "type": "bool"
        }
      ],
      "stateMutability": "view",
      "type": "function"
    },
    {
      "inputs": [
        {
          "internalType": "bytes",
          "name": "message",
          "type": "bytes"
        }
      ],
      "name": "getVoteDetails",
      "outputs": [],
      "stateMutability": "nonpayable",
      "type": "function"
    },
    {
      "inputs": [],
      "name": "recieveEther",
      "outputs": [],
      "stateMutability": "payable",
      "type": "function"
    },
    {
      "inputs": [
        {
          "internalType": "address",
          "name": "newAddress",
          "type": "address"
        },
        {
          "internalType": "uint256",
          "name": "newAmount",
          "type": "uint256"
        },
        {
          "internalType": "bytes",
          "name": "voteType",
          "type": "bytes"
        }
      ],
      "name": "suggestVote",
      "outputs": [],
      "stateMutability": "nonpayable",
      "type": "function"
    }
  ],
  "bytecode": "0x608060405260146000556040518060400160405280600a81526020017f416464204d656d626572000000000000000000000000000000000000000000008152506001908051906020019062000056929190620004b6565b506040518060400160405280600d81526020017f52656d6f7665204d656d6265720000000000000000000000000000000000000081525060029080519060200190620000a4929190620004b6565b506040518060400160405280600981526020017f41646420546f6b656e000000000000000000000000000000000000000000000081525060039080519060200190620000f2929190620004b6565b506040518060400160405280600c81526020017f52656d6f766520546f6b656e00000000000000000000000000000000000000008152506004908051906020019062000140929190620004b6565b506040518060400160405280600a81526020017f4368616e67652046656500000000000000000000000000000000000000000000815250600590805190602001906200018e929190620004b6565b506000600b556000600c60006101000a81548160ff0219169083151502179055506040518060400160405280600a81526020017f756e61737369676e656400000000000000000000000000000000000000000000815250600d9080519060200190620001fc929190620004b6565b506000600e60006101000a81548173ffffffffffffffffffffffffffffffffffffffff021916908373ffffffffffffffffffffffffffffffffffffffff1602179055506000600f5560026010553480156200025657600080fd5b50604051620020863803806200208683398181016040528101906200027c91906200057d565b6001600660008573ffffffffffffffffffffffffffffffffffffffff1673ffffffffffffffffffffffffffffffffffffffff16815260200190815260200160002060006101000a81548160ff0219169083151502179055506001600660008473ffffffffffffffffffffffffffffffffffffffff1673ffffffffffffffffffffffffffffffffffffffff16815260200190815260200160002060006101000a81548160ff0219169083151502179055506001600660008373ffffffffffffffffffffffffffffffffffffffff1673ffffffffffffffffffffffffffffffffffffffff16815260200190815260200160002060006101000a81548160ff0219169083151502179055506008839080600181540180825580915050600190039060005260206000200160009091909190916101000a81548173ffffffffffffffffffffffffffffffffffffffff021916908373ffffffffffffffffffffffffffffffffffffffff1602179055506008829080600181540180825580915050600190039060005260206000200160009091909190916101000a81548173ffffffffffffffffffffffffffffffffffffffff021916908373ffffffffffffffffffffffffffffffffffffffff1602179055506008819080600181540180825580915050600190039060005260206000200160009091909190916101000a81548173ffffffffffffffffffffffffffffffffffffffff021916908373ffffffffffffffffffffffffffffffffffffffff16021790555050505062000686565b828054620004c49062000607565b90600052602060002090601f016020900481019282620004e8576000855562000534565b82601f106200050357805160ff191683800117855562000534565b8280016001018555821562000534579182015b828111156200053357825182559160200191906001019062000516565b5b50905062000543919062000547565b5090565b5b808211156200056257600081600090555060010162000548565b5090565b60008151905062000577816200066c565b92915050565b6000806000606084860312156200059357600080fd5b6000620005a38682870162000566565b9350506020620005b68682870162000566565b9250506040620005c98682870162000566565b9150509250925092565b6000620005e082620005e7565b9050919050565b600073ffffffffffffffffffffffffffffffffffffffff82169050919050565b600060028204905060018216806200062057607f821691505b602082108114156200063757620006366200063d565b5b50919050565b7f4e487b7100000000000000000000000000000000000000000000000000000000600052602260045260246000fd5b6200067781620005d3565b81146200068357600080fd5b50565b6119f080620006966000396000f3fe60806040526004361061007b5760003560e01c80639b6064641161004e5780639b60646414610109578063b5e3909e14610132578063ced72f8714610149578063db86e36a146101745761007b565b806359770438146100805780638f4062d7146100bd578063985da726146100c75780639b17a9a1146100f2575b600080fd5b34801561008c57600080fd5b506100a760048036038101906100a291906112cc565b61019d565b6040516100b4919061152a565b60405180910390f35b6100c56101f3565b005b3480156100d357600080fd5b506100dc6101f5565b6040516100e99190611508565b60405180910390f35b3480156100fe57600080fd5b50610107610283565b005b34801561011557600080fd5b50610130600480360381019061012b91906112f5565b610d0c565b005b34801561013e57600080fd5b50610147610eb1565b005b34801561015557600080fd5b5061015e61105c565b60405161016b91906115c2565b60405180910390f35b34801561018057600080fd5b5061019b6004803603810190610196919061135c565b611066565b005b6000600760008373ffffffffffffffffffffffffffffffffffffffff1673ffffffffffffffffffffffffffffffffffffffff16815260200190815260200160002060009054906101000a900460ff169050919050565b565b6060600880548060200260200160405190810160405280929190818152602001828054801561027957602002820191906000526020600020905b8160009054906101000a900473ffffffffffffffffffffffffffffffffffffffff1673ffffffffffffffffffffffffffffffffffffffff168152602001906001019080831161022f575b5050505050905090565b600660003373ffffffffffffffffffffffffffffffffffffffff1673ffffffffffffffffffffffffffffffffffffffff16815260200190815260200160002060009054906101000a900460ff166102d957600080fd5b600c60009054906101000a900460ff166102f257600080fd5b600054600b54610302919061169d565b431161030d57600080fd5b6000805b6008805490508110156104a257600a6000600b54815260200190815260200160002060006008838154811061036f577f4e487b7100000000000000000000000000000000000000000000000000000000600052603260045260246000fd5b9060005260206000200160009054906101000a900473ffffffffffffffffffffffffffffffffffffffff1673ffffffffffffffffffffffffffffffffffffffff1673ffffffffffffffffffffffffffffffffffffffff16815260200190815260200160002060009054906101000a900460ff161561048f57600073ffffffffffffffffffffffffffffffffffffffff1660088281548110610439577f4e487b7100000000000000000000000000000000000000000000000000000000600052603260045260246000fd5b9060005260206000200160009054906101000a900473ffffffffffffffffffffffffffffffffffffffff1673ffffffffffffffffffffffffffffffffffffffff161461048e57818061048a90611845565b9250505b5b808061049a90611845565b915050610311565b506010548110610ca7576105ca600d80546104bc906117e2565b80601f01602080910402602001604051908101604052809291908181526020018280546104e8906117e2565b80156105355780601f1061050a57610100808354040283529160200191610535565b820191906000526020600020905b81548152906001019060200180831161051857829003601f168201915b505050505060018054610547906117e2565b80601f0160208091040260200160405190810160405280929190818152602001828054610573906117e2565b80156105c05780601f10610595576101008083540402835291602001916105c0565b820191906000526020600020905b8154815290600101906020018083116105a357829003601f168201915b5050505050611122565b1561065657600160066000600e60009054906101000a900473ffffffffffffffffffffffffffffffffffffffff1673ffffffffffffffffffffffffffffffffffffffff1673ffffffffffffffffffffffffffffffffffffffff16815260200190815260200160002060006101000a81548160ff02191690831515021790555061065161113d565b610ca6565b610774600d8054610666906117e2565b80601f0160208091040260200160405190810160405280929190818152602001828054610692906117e2565b80156106df5780601f106106b4576101008083540402835291602001916106df565b820191906000526020600020905b8154815290600101906020018083116106c257829003601f168201915b5050505050600280546106f1906117e2565b80601f016020809104026020016040519081016040528092919081815260200182805461071d906117e2565b801561076a5780601f1061073f5761010080835404028352916020019161076a565b820191906000526020600020905b81548152906001019060200180831161074d57829003601f168201915b5050505050611122565b1561096357600060066000600e60009054906101000a900473ffffffffffffffffffffffffffffffffffffffff1673ffffffffffffffffffffffffffffffffffffffff1673ffffffffffffffffffffffffffffffffffffffff16815260200190815260200160002060006101000a81548160ff02191690831515021790555060005b60088054905081101561095d57600e60009054906101000a900473ffffffffffffffffffffffffffffffffffffffff1673ffffffffffffffffffffffffffffffffffffffff1660088281548110610876577f4e487b7100000000000000000000000000000000000000000000000000000000600052603260045260246000fd5b9060005260206000200160009054906101000a900473ffffffffffffffffffffffffffffffffffffffff1673ffffffffffffffffffffffffffffffffffffffff16141561094a576000600882815481106108f9577f4e487b7100000000000000000000000000000000000000000000000000000000600052603260045260246000fd5b9060005260206000200160006101000a81548173ffffffffffffffffffffffffffffffffffffffff021916908373ffffffffffffffffffffffffffffffffffffffff16021790555061094961113d565b5b808061095590611845565b9150506107f6565b50610ca5565b610a81600d8054610973906117e2565b80601f016020809104026020016040519081016040528092919081815260200182805461099f906117e2565b80156109ec5780601f106109c1576101008083540402835291602001916109ec565b820191906000526020600020905b8154815290600101906020018083116109cf57829003601f168201915b5050505050600380546109fe906117e2565b80601f0160208091040260200160405190810160405280929190818152602001828054610a2a906117e2565b8015610a775780601f10610a4c57610100808354040283529160200191610a77565b820191906000526020600020905b815481529060010190602001808311610a5a57829003601f168201915b5050505050611122565b15610b0557600160076000600e60009054906101000a900473ffffffffffffffffffffffffffffffffffffffff1673ffffffffffffffffffffffffffffffffffffffff1673ffffffffffffffffffffffffffffffffffffffff16815260200190815260200160002060006101000a81548160ff021916908315150217905550610ca4565b610c23600d8054610b15906117e2565b80601f0160208091040260200160405190810160405280929190818152602001828054610b41906117e2565b8015610b8e5780601f10610b6357610100808354040283529160200191610b8e565b820191906000526020600020905b815481529060010190602001808311610b7157829003601f168201915b505050505060048054610ba0906117e2565b80601f0160208091040260200160405190810160405280929190818152602001828054610bcc906117e2565b8015610c195780601f10610bee57610100808354040283529160200191610c19565b820191906000526020600020905b815481529060010190602001808311610bfc57829003601f168201915b5050505050611122565b15610ca357600060076000600e60009054906101000a900473ffffffffffffffffffffffffffffffffffffffff1673ffffffffffffffffffffffffffffffffffffffff1673ffffffffffffffffffffffffffffffffffffffff16815260200190815260200160002060006101000a81548160ff0219169083151502179055505b5b5b5b5b600f546009819055506000600c60006101000a81548160ff021916908315150217905550610d096040518060400160405280600b81526020017f566f74696e6720656e6421000000000000000000000000000000000000000000815250611066565b50565b600660003373ffffffffffffffffffffffffffffffffffffffff1673ffffffffffffffffffffffffffffffffffffffff16815260200190815260200160002060009054906101000a900460ff16610d6257600080fd5b60001515600c60009054906101000a900460ff16151514610d8257600080fd5b6001600c60006101000a81548160ff02191690831515021790555043600b8190555080600d9080519060200190610dba929190611197565b506001600a6000600b54815260200190815260200160002060003373ffffffffffffffffffffffffffffffffffffffff1673ffffffffffffffffffffffffffffffffffffffff16815260200190815260200160002060006101000a81548160ff02191690831515021790555082600e60006101000a81548173ffffffffffffffffffffffffffffffffffffffff021916908373ffffffffffffffffffffffffffffffffffffffff16021790555081600f81905550610eac6040518060400160405280600d81526020017f47656e6573697320566f74652100000000000000000000000000000000000000815250611066565b505050565b600660003373ffffffffffffffffffffffffffffffffffffffff1673ffffffffffffffffffffffffffffffffffffffff16815260200190815260200160002060009054906101000a900460ff16610f0757600080fd5b600c60009054906101000a900460ff16610f2057600080fd5b6000600b5443610f309190611724565b600054610f3d9190611724565b11610f4757600080fd5b600a6000600b54815260200190815260200160002060003373ffffffffffffffffffffffffffffffffffffffff1673ffffffffffffffffffffffffffffffffffffffff16815260200190815260200160002060009054906101000a900460ff1615610fb157600080fd5b6001600a6000600b54815260200190815260200160002060003373ffffffffffffffffffffffffffffffffffffffff1673ffffffffffffffffffffffffffffffffffffffff16815260200190815260200160002060006101000a81548160ff02191690831515021790555061105a6040518060400160405280600981526020017f4e657720566f7465210000000000000000000000000000000000000000000000815250611066565b565b6000600954905090565b600043600b54600054611079919061169d565b106110a057600b544361108c9190611724565b6000546110999190611724565b90506110a5565b600090505b7f9ed2bdc665a71aa545849e18b36fa7c7fcd2c83a11a2045dd8f0619d491adee9600c60009054906101000a900460ff1682600d600e60009054906101000a900473ffffffffffffffffffffffffffffffffffffffff16600f54601054886040516111169796959493929190611545565b60405180910390a15050565b60008180519060200120838051906020012014905092915050565b600060088054905090506000600282611156919061188e565b14156111745760028161116991906116f3565b601081905550611194565b600160028261118391906116f3565b61118d919061169d565b6010819055505b50565b8280546111a3906117e2565b90600052602060002090601f0160209004810192826111c5576000855561120c565b82601f106111de57805160ff191683800117855561120c565b8280016001018555821561120c579182015b8281111561120b5782518255916020019190600101906111f0565b5b509050611219919061121d565b5090565b5b8082111561123657600081600090555060010161121e565b5090565b600061124d61124884611602565b6115dd565b90508281526020810184848401111561126557600080fd5b6112708482856117a0565b509392505050565b6000813590506112878161198c565b92915050565b600082601f83011261129e57600080fd5b81356112ae84826020860161123a565b91505092915050565b6000813590506112c6816119a3565b92915050565b6000602082840312156112de57600080fd5b60006112ec84828501611278565b91505092915050565b60008060006060848603121561130a57600080fd5b600061131886828701611278565b9350506020611329868287016112b7565b925050604084013567ffffffffffffffff81111561134657600080fd5b6113528682870161128d565b9150509250925092565b60006020828403121561136e57600080fd5b600082013567ffffffffffffffff81111561138857600080fd5b6113948482850161128d565b91505092915050565b60006113a983836113b5565b60208301905092915050565b6113be81611758565b82525050565b6113cd81611758565b82525050565b60006113de82611658565b6113e8818561167b565b93506113f383611633565b8060005b8381101561142457815161140b888261139d565b97506114168361166e565b9250506001810190506113f7565b5085935050505092915050565b61143a8161176a565b82525050565b600061144b82611663565b611455818561168c565b93506114658185602086016117af565b61146e8161197b565b840191505092915050565b60008154611486816117e2565b611490818661168c565b945060018216600081146114ab57600181146114bd576114f0565b60ff19831686526020860193506114f0565b6114c685611643565b60005b838110156114e8578154818901526001820191506020810190506114c9565b808801955050505b50505092915050565b61150281611796565b82525050565b6000602082019050818103600083015261152281846113d3565b905092915050565b600060208201905061153f6000830184611431565b92915050565b600060e08201905061155a600083018a611431565b61156760208301896114f9565b81810360408301526115798188611479565b905061158860608301876113c4565b61159560808301866114f9565b6115a260a08301856114f9565b81810360c08301526115b48184611440565b905098975050505050505050565b60006020820190506115d760008301846114f9565b92915050565b60006115e76115f8565b90506115f38282611814565b919050565b6000604051905090565b600067ffffffffffffffff82111561161d5761161c61194c565b5b6116268261197b565b9050602081019050919050565b6000819050602082019050919050565b60008190508160005260206000209050919050565b600081519050919050565b600081519050919050565b6000602082019050919050565b600082825260208201905092915050565b600082825260208201905092915050565b60006116a882611796565b91506116b383611796565b9250827fffffffffffffffffffffffffffffffffffffffffffffffffffffffffffffffff038211156116e8576116e76118bf565b5b828201905092915050565b60006116fe82611796565b915061170983611796565b925082611719576117186118ee565b5b828204905092915050565b600061172f82611796565b915061173a83611796565b92508282101561174d5761174c6118bf565b5b828203905092915050565b600061176382611776565b9050919050565b60008115159050919050565b600073ffffffffffffffffffffffffffffffffffffffff82169050919050565b6000819050919050565b82818337600083830152505050565b60005b838110156117cd5780820151818401526020810190506117b2565b838111156117dc576000848401525b50505050565b600060028204905060018216806117fa57607f821691505b6020821081141561180e5761180d61191d565b5b50919050565b61181d8261197b565b810181811067ffffffffffffffff8211171561183c5761183b61194c565b5b80604052505050565b600061185082611796565b91507fffffffffffffffffffffffffffffffffffffffffffffffffffffffffffffffff821415611883576118826118bf565b5b600182019050919050565b600061189982611796565b91506118a483611796565b9250826118b4576118b36118ee565b5b828206905092915050565b7f4e487b7100000000000000000000000000000000000000000000000000000000600052601160045260246000fd5b7f4e487b7100000000000000000000000000000000000000000000000000000000600052601260045260246000fd5b7f4e487b7100000000000000000000000000000000000000000000000000000000600052602260045260246000fd5b7f4e487b7100000000000000000000000000000000000000000000000000000000600052604160045260246000fd5b6000601f19601f8301169050919050565b61199581611758565b81146119a057600080fd5b50565b6119ac81611796565b81146119b757600080fd5b5056fea26469706673582212201e4404676d588f6dde23941e2239bb625aa366e12f65c7ee0122dce2043917f064736f6c63430008010033",
  "linkReferences": {},
  "deployedLinkReferences": {}
}